:020000040800F2
:1000000000500020D5240008B90F0008BB0F0008DD
:10001000BD0F0008BF0F0008C10F0008000000005E
:10002000000000000000000000000000C30F0008F6
:10003000C50F000800000000C70F0008C90F000826
:100040001D2500081D2500081D2500081D25000888
:100050001D2500081D2500081D2500081D25000878
:100060001D2500081D2500081D2500081D25000868
:100070001D2500081D2500081D2500081D25000858
:100080001D2500081D2500081D2500081D25000848
:100090001D2500081D2500081D2500081D25000838
:1000A0001D2500081D2500081D2500081D25000828
:1000B0001D2500081D2500081D2500081D25000818
:1000C0001D2500081D2500081D2500081D25000808
:1000D0001D250008D10F00081D2500081D2500085A
:1000E0001D2500081D2500081D2500080000000032
:1000F0000000000000000000000000000000000000
:0C01000000000000000000005FF808F1A3
:1001100010B5054C237833B9044B13B10448AFF341
:1001200000800123237010BDE001002000000000CA
:100130003C53000808B5034B1BB103490348AFF318
:10014000008008BD00000000E40100203C530008CE
:1001500010F8012B11F8013B012A28BF9A42F7D071
:10016000D01A7047034613F8012B002AFBD1181A46
:100170000138704781F0004102E000BF83F0004386
:1001800030B54FEA41044FEA430594EA050F08BF32
:1001900090EA020F1FBF54EA000C55EA020C7FEAF6
:1001A000645C7FEA655C00F0E2804FEA5454D4EB73
:1001B0005555B8BF6D420CDD2C4480EA020281EA3D
:1001C000030382EA000083EA010180EA020281EA75
:1001D0000303362D88BF30BD11F0004F4FEA0131C7
:1001E0004FF4801C4CEA113102D0404261EB4101D6
:1001F00013F0004F4FEA03334CEA133302D052425C
:1002000063EB430394EA050F00F0A780A4F1010417
:10021000D5F1200E0DDB02FA0EFC22FA05F2801851
:1002200041F1000103FA0EF2801843FA05F3594137
:100230000EE0A5F120050EF1200E012A03FA0EFCB6
:1002400028BF4CF0020C43FA05F3C01851EBE371E0
:1002500001F0004507D54FF0000EDCF1000C7EEBFD
:1002600000006EEB0101B1F5801F1BD3B1F5001F3B
:100270000CD349085FEA30004FEA3C0C04F101045A
:100280004FEA445212F5800F80F09A80BCF1004F83
:1002900008BF5FEA500C50F1000041EB045141EA05
:1002A000050130BD5FEA4C0C404141EB0101013CCE
:1002B00028BFB1F5801FE9D291F0000F04BF0146BD
:1002C0000020B1FA81F308BF2033A3F10B03B3F18F
:1002D00020020CDA0C3208DD02F1140CC2F10C021F
:1002E00001FA0CF021FA02F10CE002F11402D8BF7D
:1002F000C2F1200C01FA02F120FA0CFCDCBF41EA49
:100300000C019040E41AA2BF01EB0451294330BD17
:100310006FEA04041F3C1CDA0C340EDC04F11404F4
:10032000C4F1200220FA04F001FA02F340EA0300CB
:1003300021FA04F345EA030130BDC4F10C04C4F111
:10034000200220FA02F001FA04F340EA03002946F1
:1003500030BD21FA04F0294630BD94F0000F83F43B
:10036000801306BF81F480110134013D4EE77FEA1E
:10037000645C18BF7FEA655C29D094EA050F08BF6A
:1003800090EA020F05D054EA000C04BF194610464B
:1003900030BD91EA030F1EBF0021002030BD5FEA8F
:1003A000545C05D14000494128BF41F0004130BDB7
:1003B00014F580043CBF01F5801130BD01F000450B
:1003C00045F0FE4141F470014FF0000030BD7FEA7E
:1003D000645C1ABF194610467FEA655C1CBF0B4679
:1003E000024650EA013406BF52EA033591EA030F90
:1003F00041F4002130BD00BF90F0000F04BF002188
:10040000704730B54FF4806404F132044FF00005BA
:100410004FF0000150E700BF90F0000F04BF002133
:10042000704730B54FF4806404F1320410F0004599
:1004300048BF40424FF000013EE700BF42004FEA94
:10044000E2014FEA31014FEA02701FBF12F07F4311
:1004500093F07F4F81F06051704732F07F4208BFC8
:10046000704793F07F4F04BF41F40021704730B5CF
:100470004FF4607401F0004521F000411CE700BF1B
:1004800050EA010208BF704730B54FF000050AE09E
:1004900050EA010208BF704730B511F0004502D59F
:1004A000404261EB41014FF4806404F132045FEAA1
:1004B000915C3FF4D8AE4FF003025FEADC0C18BF4A
:1004C00003325FEADC0C18BF033202EBDC02C2F13C
:1004D000200300FA03FC20FA02F001FA03FE40EACE
:1004E0000E0021FA02F11444BDE600BF70B54FF0D2
:1004F000FF0C4CF4E06C1CEA11541DBF1CEA1355B0
:1005000094EA0C0F95EA0C0F00F0DEF82C4481EA17
:10051000030621EA4C5123EA4C5350EA013518BF37
:1005200052EA033541F4801143F4801338D0A0FB24
:1005300002CE4FF00005E1FB02E506F00042E0FBD1
:1005400003E54FF00006E1FB03569CF0000F18BFD7
:100550004EF0010EA4F1FF04B6F5007F64F540747F
:1005600004D25FEA4E0E6D4146EB060642EAC62112
:1005700041EA55514FEAC52040EA5E504FEACE2E7F
:10058000B4F1FD0C88BFBCF5E06F1ED8BEF1004F82
:1005900008BF5FEA500E50F1000041EB045170BDFE
:1005A00006F0004646EA010140EA020081EA030142
:1005B000B4EB5C04C2BFD4EB0C0541EA045170BD3E
:1005C00041F480114FF0000E013C00F3AB8014F1B8
:1005D000360FDEBF002001F0004170BDC4F1000401
:1005E000203C35DA0C341BDC04F11404C4F1200582
:1005F00000FA05F320FA04F001FA05F240EA0200DD
:1006000001F0004221F0004110EBD37021FA04F612
:1006100042EB06015EEA430E08BF20EAD37070BDCC
:10062000C4F10C04C4F1200500FA04F320FA05F02B
:1006300001FA04F240EA020001F0004110EBD3702D
:1006400041F100015EEA430E08BF20EAD37070BD9D
:10065000C4F1200500FA05F24EEA020E20FA04F376
:1006600001FA05F243EA020321FA04F001F0004125
:1006700021FA04F220EA020000EBD3705EEA430E96
:1006800008BF20EAD37070BD94F0000F0FD101F0C5
:100690000046400041EB010111F4801F08BF013CFE
:1006A000F7D041EA060195F0000F18BF704703F03C
:1006B0000046520043EB030313F4801F08BF013DC3
:1006C000F7D043EA0603704794EA0C0F0CEA13557F
:1006D00018BF95EA0C0F0CD050EA410618BF52EA39
:1006E0004306D1D181EA030101F000414FF000003F
:1006F00070BD50EA410606BF1046194652EA43064D
:1007000019D094EA0C0F02D150EA013613D195EAC0
:100710000C0F05D152EA03361CBF104619460AD108
:1007200081EA030101F0004141F0FE4141F4700112
:100730004FF0000070BD41F0FE4141F4780170BD02
:1007400070B54FF0FF0C4CF4E06C1CEA11541DBF67
:100750001CEA135594EA0C0F95EA0C0F00F0A7F869
:10076000A4EB050481EA030E52EA03354FEA013196
:1007700000F088804FEA03334FF0805545EA1313A9
:1007800043EA12634FEA022245EA111545EA106571
:100790004FEA00260EF000419D4208BF964244F108
:1007A000FD0404F5407402D25B084FEA3202B61A27
:1007B00065EB03055B084FEA32024FF480104FF4FB
:1007C000002CB6EB020E75EB030E22BFB61A75466F
:1007D00040EA0C005B084FEA3202B6EB020E75EB02
:1007E000030E22BFB61A754640EA5C005B084FEA6A
:1007F0003202B6EB020E75EB030E22BFB61A754637
:1008000040EA9C005B084FEA3202B6EB020E75EB41
:10081000030E22BFB61A754640EADC0055EA060E02
:1008200018D04FEA051545EA16754FEA06164FEA45
:10083000C30343EA52734FEAC2025FEA1C1CC0D1F1
:1008400011F4801F0BD141EA00014FF000004FF07E
:10085000004CB6E711F4801F04BF01430020B4F13F
:10086000FD0C88BFBCF5E06F3FF6AFAEB5EB030CF7
:1008700004BFB6EB020C5FEA500C50F1000041EBF4
:10088000045170BD0EF0004E4EEA113114EB5C04C1
:10089000C2BFD4EB0C0541EA045170BD41F4801194
:1008A0004FF0000E013C90E645EA060E8DE60CEA9C
:1008B000135594EA0C0F08BF95EA0C0F3FF43BAFB9
:1008C00094EA0C0F0AD150EA01347FF434AF95EA70
:1008D0000C0F7FF425AF104619462CE795EA0C0F54
:1008E00006D152EA03353FF4FDAE1046194622E721
:1008F00050EA410618BF52EA43067FF4C5AE50EAFB
:1009000041047FF40DAF52EA43057FF4EBAE12E7EA
:100910004FF0FF3C06E000BF4FF0010C02E000BFCB
:100920004FF0010C4DF804CD4FEA410C7FEA6C5CAE
:100930004FEA430C18BF7FEA6C5C1BD001B050EA51
:10094000410C0CBF52EA430C91EA030F02BF90EA3C
:10095000020F0020704710F1000F91EA030F58BFFB
:10096000994208BF90422CBFD8176FEAE37040F05D
:10097000010070474FEA410C7FEA6C5C02D150EAFB
:10098000013C07D14FEA430C7FEA6C5CD6D152EAB6
:10099000033CD3D05DF8040B704700BF844610467B
:1009A00062468C461946634600E000BF01B5FFF77A
:1009B000B7FF002848BF10F1000F01BD4DF808ED4A
:1009C000FFF7F4FF0CBF012000205DF808FB00BF1B
:1009D0004DF808EDFFF7EAFF34BF012000205DF875
:1009E00008FB00BF4DF808EDFFF7E0FF94BF0120C2
:1009F00000205DF808FB00BF4DF808EDFFF7CEFFC3
:100A000094BF012000205DF808FB00BF4DF808ED01
:100A1000FFF7C4FF34BF012000205DF808FB00BFD2
:100A20004A0011D212F5001211D20DD56FF478736D
:100A3000B3EB62520ED44FEAC12343F0004343EAC2
:100A4000505323FA02F070474FF00000704750EA0D
:100A5000013002D14FF0FF3070474FF00000704777
:100A600038B505460C460022002328462146FFF7EC
:100A7000AFFF28B928462146BDE8384000F00AB843
:100A8000284604F1004100F005F8404261EB4101C5
:100A900038BD00BFD0B500220B4B06460F46FFF70E
:100AA00025FDFFF7BDFF0446FFF7A6FC0022074B1C
:100AB000FFF71CFD02460B4630463946FFF75EFB4A
:100AC000FFF7AEFF2146D0BD0000F03D0000F04131
:100AD00008B5184B1B78184AD25C0A2A0FD001338C
:100AE000144A1370134B1B78122B1ED0114B1B781A
:100AF000012211491944114801F0CFFC08BD0D4BEA
:100B000000221A7014210C4800F0EAF930B90123D0
:100B100003220B49094801F0B4FAE3E70123062256
:100B20000849064801F0ADFADCE7024B00221A70D2
:100B3000DCE700BF10020020FC0100206C02002056
:100B40005C5300086053000808B572B60A4C0122D5
:100B50004FF40051204601F0BBF84FF4C87000F08C
:100B60005FFC00224FF40051204601F0B1F84FF431
:100B7000C87000F055FCE9E70010014000B591B0E5
:100B80002822002106A801F0F1FC00230193029322
:100B90000393049305930223069301220A921022E1
:100BA0000B920D934FF400230F9306A800F062FC04
:100BB00070B90F2301930223029300210391049142
:100BC000059101A800F096FE20B911B05DF804FB74
:100BD000FFF7BAFFFFF7B8FF08B500F0FDFBFFF71E
:100BE000CDFF00F021F800F06FF800F0D3F80122FB
:100BF0004FF40051084801F06BF8084C084B197885
:100C000001222144074801F048FC0A23E3744FF411
:100C1000967000F005FCFAE700100140FC0100208E
:100C2000100200206C0200202DE9F04188B0002461
:100C30000494059406940794204B9A6942F010029C
:100C40009A619A6902F010020192019A9A6942F03F
:100C500020029A619A6902F020020292029A9A692D
:100C600042F004029A619B6903F004030393039B1F
:100C7000DFF84C8022464FF40051404601F028F83E
:100C8000104D22460721284601F022F84FF4005368
:100C900004930127059706940226079604A9404667
:100CA00000F004FF0723049305970694079604A910
:100CB000284600F0FBFE08B0BDE8F08100100240BD
:100CC000001001400008014010B51648164B0360A3
:100CD0004FF482734360002383604FF40062C2606C
:100CE000036143614FF400728261C3610362436236
:100CF00083620A23C36200F011FA80B90B4C01220F
:100D00001146204600F0E4FF01220221204600F0B7
:100D1000DFFF01220421204600F0DAFF10BDFFF7BB
:100D200013FFEBE7140200200030014000080140EF
:100D300000B587B0002302930393049305930268E0
:100D4000124B9A4202D007B05DF804FB03F56043F2
:100D50009A6942F480529A619A6902F48052009230
:100D6000009A9A6942F004029A619B6903F00403B5
:100D70000193019BA0230293022303930323059372
:100D800002A9034800F092FEDDE700BF00300140F9
:100D90000008014008B50A480A4B03604FF4E133EC
:100DA000436000238360C36003610C22426183615E
:100DB000C36101F037F900B908BDFFF7C5FEFBE7D5
:100DC0006C0200200038014030B587B00023029348
:100DD00003930493059302681B4B9A4201D007B01A
:100DE00030BD03F558439A6942F480429A619A698A
:100DF00002F480420092009A9A6942F004029A61D9
:100E00009B6903F004030193019B4FF40073029369
:100E100002230393032305930C4D02A9284600F0F7
:100E200045FE4FF48063029300240394049402A9C6
:100E3000284600F03BFE22462146252000F0CEFF4A
:100E4000252001F003F8CAE70038014000080140FE
:100E500010B582B00446104619461DA3D3E90023FD
:100E6000FFF744FBFFF7DCFDADF80600012C22D0B4
:100E7000022C26D0CCB1012302220DF10601164826
:100E800000F0A7F9154C01221146204600F020FF82
:100E900001220221204600F01BFF012204212046EE
:100EA00000F016FF002002B010BD002201210B4807
:100EB00000F00EFFDFE700220221084800F008FFE3
:100EC000D9E700220421054800F002FFD3E700BF64
:100ED0009A99999999597940140200200008014083
:100EE000F0B587B004462F4B1B88ADF814300023B3
:100EF0008DF816300093019302930393049307E057
:100F0000E15C03F118026A4402F8041C0133DBB20D
:100F1000022BF5D9244905A8FFF71AF978B1052560
:100F2000224905A8FFF714F900B90125204905A8B1
:100F3000FFF70EF928B1052D04D101202BE0002583
:100F4000EEE70225002306E003F11801694401F8E9
:100F5000182C0133DBB21A1DA25C0A2AF4D1183313
:100F60006B44002203F8182C684601F0D8FA0646B4
:100F70000F4600220F4BFFF749FD70B900220023F6
:100F800030463946FFF724FD48B932463B462846ED
:100F9000FFF75EFF002007B0F0BD0120FBE7012056
:100FA000F9E700BF58530008685300086C53000865
:100FB0007053000800002440FEE7FEE7FEE7FEE76E
:100FC000FEE770477047704708B500F017FA08BD94
:100FD00008B5024801F044F908BD00BF6C020020CA
:100FE00082B00E4B9A6942F001029A619A6902F04E
:100FF00001020092009ADA6942F08052DA61DB69FC
:1010000003F080530193019B054A536823F0E0638A
:1010100043F00073536002B0704700BF00100240FD
:10102000000001402DE9F04782B00546884617468A
:101030001E4600F0EFF90A9B1B1A03EB060900F0AD
:10104000E9F982462B4B1B68C3F3CB3309FB03F34F
:1010500001932B689C6838EA04030CBF4FF0010C25
:101060004FF0000CBC4540D0B6F1FF3FF1D000F08E
:10107000D1F9A0EB0A0048450AD2B9F1000F07D018
:10108000019A02B14A46019B013B01939146E0E778
:101090002A68536823F0E00353606B68B3F5827FDE
:1010A0000BD0AB6AB3F5005F14D0012385F8513043
:1010B000002385F85030032018E0AB68B3F5004FEB
:1010C00002D0B3F5806FECD12A68136823F0400397
:1010D0001360E6E72A68136823F4005313602A6854
:1010E000136843F400531360DFE7002002B0BDE84B
:1010F000F08700BF0800002010B582B004460B4600
:10110000009200228021FFF78DFF08B902B010BDC8
:10111000636D43F0200363650320F7E7002856D092
:1011200010B50446436A33B94368B3F5827F05D0EE
:101130000023C36102E00023036143610023A36233
:1011400094F85130002B3CD0022384F851302268AF
:10115000136823F040031360636803F48273A2688A
:1011600002F404421343E26802F40062134322696A
:1011700002F002021343626902F001021343A26902
:1011800002F400721343E26902F038021343226A48
:1011900002F080021343A26A02F400522168134352
:1011A0000B60638B226803F0040353602268D369E9
:1011B00023F40063D36100206065012384F851307B
:1011C00010BD84F850302046FFF7B2FDBCE7012087
:1011D00070472DE9F04383B01D4690F85030012B45
:1011E00000F0D180044688469146012380F85030B3
:1011F00000F010F9074694F85160F6B2012E40F065
:10120000AF80B8F1000F00F0AC80B9F1000F00F032
:10121000A880032384F8513000236365C4F830802C
:10122000A4F83490A4F83690A363A387E38763649B
:101230002364A368B3F5004F1ED023681A6812F028
:10124000400F03D11A6842F040021A60E368B3F518
:10125000006F1CD0636813B1B9F1010F52D1226B3A
:10126000236812781A73236B01332363E38E9BB2D6
:10127000013B9BB2E38645E02268136823F04003FC
:1012800013602268136843F480431360D5E76368F2
:1012900013B1B9F1010F16D1226B23681288DA60FD
:1012A000236B02332363E38E9BB2013B9BB2E38645
:1012B00009E000F0AFF8C01BA84202D3B5F1FF3F30
:1012C00059D1002D59D0E38E9BB2002B33D0236827
:1012D0009A6812F0020FECD0226B1288DA60236B4E
:1012E00002332363E38E9BB2013B9BB2E386EAE7C2
:1012F00000F090F8C01BA84202D3B5F1FF3F3ED1E9
:10130000002D3ED0E38E9BB2ABB123689A6812F0F9
:10131000020FEDD0226B12781A73236B0133236313
:10132000B4F836C01FFA8CFC0CF1FF3C1FFA8CFCA1
:10133000A4F836C0E6E73A4629462046FFF7DCFE29
:1013400008B120236365A36833B901932368DA6881
:1013500001929B680193019B636D13B9002600E025
:101360000226012384F85130002384F8503030469F
:1013700003B0BDE8F0830326F3E70326F1E7032675
:10138000EFE70326EDE70226F1E7000010B504467B
:101390000E4B18784FF47A73B3FBF0F30C4A1068D5
:1013A000B0FBF3F000F060FD68B90F2C01D901200B
:1013B0000AE0002221464FF0FF3000F00FFD054B00
:1013C0001C60002000E0012010BD00BF00000020D4
:1013D000080000200400002008B5074A136843F005
:1013E00010031360032000F0E7FC0F20FFF7CEFF8F
:1013F000FFF7F6FD002008BD00200240034A1168F7
:10140000034B1B780B441360704700BFB0020020F1
:1014100000000020014B1868704700BFB002002098
:1014200038B50446FFF7F6FF0546B4F1FF3F02D09A
:10143000044B1B781C44FFF7EDFF401BA042FAD37E
:1014400038BD00BF0000002082B0084B1B68084A6E
:10145000A2FB03235B0A00FB03F3019300BF019B84
:101460005A1E0192002BF9D102B0704708000020EB
:10147000D34D6210002800F0F18170B582B00446AF
:10148000036813F0010F2CD0994B5B6803F00C0339
:10149000042B1DD0964B5B6803F00C03082B12D075
:1014A0006368B3F5803F41D0002B55D103F18043F1
:1014B00003F504331A6822F480321A601A6822F4A1
:1014C00080221A6037E08A4B5B6813F4803FE7D0D4
:1014D000874B1B6813F4003F03D06368002B00F0B8
:1014E000BF81236813F0020F75D0814B5B6813F046
:1014F0000C0F5FD07E4B5B6803F00C03082B54D0BD
:101500002369002B00F08A807A4B01221A60FFF7D2
:1015100081FF0546764B1B6813F0020F75D1FFF76C
:1015200079FF401B0228F5D903209EE1704A136819
:1015300043F480331360636843B3FFF76BFF0546E2
:101540006B4B1B6813F4003FCBD1FFF763FF401BCD
:101550006428F5D9032088E1B3F5A02F09D0644BA6
:101560001A6822F480321A601A6822F480221A6003
:10157000E1E703F18043A3F53C331A6842F480228B
:101580001A601A6842F480321A60D4E7FFF742FF0B
:101590000546574B1B6813F4003FA2D0FFF73AFFF4
:1015A000401B6428F5D903205FE1514B5B6813F4BD
:1015B000803FA5D14E4B1B6813F0020F03D0236967
:1015C000012B40F04F814A4A136823F0F803616908
:1015D00043EAC1031360236813F0080F33D0A369F3
:1015E000002B5CD0434B0122C3F88024FFF712FF8D
:1015F00005463F4B5B6A13F0020F21D1FFF70AFF4C
:10160000401B0228F5D903202FE1394A136823F043
:10161000F803616943EAC1031360DCE7354B00223C
:101620001A60FFF7F7FE0546314B1B6813F0020FF7
:10163000D1D0FFF7EFFE401B0228F5D9032014E1BB
:101640000120FFF701FF236813F0040F00F09680DC
:10165000274BDB6913F0805F34D1254BDA6942F008
:101660008052DA61DB6903F080530193019B01250D
:10167000214B1B6813F4807F26D0E368012B3DD0FB
:10168000002B53D103F1804303F504331A6A22F08F
:1016900001021A621A6A22F004021A6233E0154B40
:1016A0000022C3F88024FFF7B5FE0546104B5B6AA5
:1016B00013F0020FC7D0FFF7ADFE401B0228F5D98B
:1016C0000320D2E00025D3E70B4A136843F480736C
:1016D0001360FFF79FFE0646074B1B6813F4807FDD
:1016E000CBD1FFF797FE801B6428F5D90320BCE01F
:1016F0000010024000004242007000405F4A136A3E
:1017000043F001031362E36833B3FFF783FE064639
:101710005A4B1B6A13F0020F2FD1FFF77BFE801B81
:1017200041F288339842F3D903209EE0052B09D07B
:10173000524B1A6A22F001021A621A6A22F004025B
:101740001A62E0E74D4B1A6A42F004021A621A6A02
:1017500042F001021A62D6E7FFF75CFE0646474BED
:101760001B6A13F0020F08D0FFF754FE801B41F2F2
:1017700088339842F3D9032077E0E5B9E369002B79
:1017800072D03E4A526802F00C02082A56D0022B50
:1017900017D03B4B00221A66FFF73CFE0446374B3E
:1017A0001B6813F0007F47D0FFF734FE001B0228B0
:1017B000F5D9032059E0314AD36923F08053D3612E
:1017C000DCE72F4B00221A66FFF724FE05462B4B61
:1017D0001B6813F0007F06D0FFF71CFE401B022899
:1017E000F5D9032041E0236AB3F5803F1AD023499D
:1017F0004B6823F47413226A606A024313434B60FC
:101800001F4B01221A66FFF705FE04461B4B1B689F
:1018100013F0007F0ED1FFF7FDFD001B0228F5D964
:10182000032022E0154A536823F40033A1680B43D8
:101830005360DCE7002018E0002016E0012B16D0F2
:101840000E4B5B6803F48031226A914211D103F49C
:101850007013626A93420ED1002006E001207047A7
:10186000012002E0012000E0002002B070BD012054
:10187000FBE70120F9E70120F7E700BF0010024075
:101880000000424286B0174B0FCB0DF1180C0CE94B
:101890000F0040F20123ADF80430134B5B6803F0F6
:1018A0000C02082A02D0114806B07047C3F38342E5
:1018B00018326A4412F8100C13F4803F0DD00A4B12
:1018C0005B68C3F3404318336B4413F8143C074A76
:1018D00002FB00F0B0FBF3F0E6E7054B03FB00F082
:1018E000E2E700BF745300080010024000127A00C3
:1018F00000093D00002800F0A08070B50D460446A8
:10190000524B1B6803F007038B420BD24F4A1368FC
:1019100023F007030B431360136803F007038B42A4
:1019200040F08D80236813F0020F17D013F0040FDE
:1019300004D0474A536843F4E0635360236813F0CC
:10194000080F04D0424A536843F460535360404A3E
:10195000536823F0F003A1680B435360236813F02E
:10196000010F31D06368012B20D0022B25D0384ADB
:10197000126812F0020F64D035494A6822F003025F
:1019800013434B60FFF746FD0646314B5B6803F09F
:101990000C036268B3EB820F16D0FFF73BFD801B90
:1019A00041F288339842F0D9032045E0284A126872
:1019B00012F4003FE0D101203EE0254A126812F007
:1019C000007FD9D1012037E0204B1B6803F00703CB
:1019D000AB420AD91D4A136823F007032B43136057
:1019E000136803F00703AB422DD1236813F0040FF3
:1019F00006D0174A536823F4E063E1680B43536051
:101A0000236813F0080F07D0114A536823F460537A
:101A1000216943EAC1035360FFF734FF0C4B5B6855
:101A2000C3F303130B4AD35CD8400B4B18600B4B2A
:101A30001868FFF7ABFC002070BD01207047012043
:101A4000FAE70120F8E70120F6E700BF0020024096
:101A50000010024088530008080000200400002005
:101A6000014B1868704700BF0800002008B5FFF759
:101A7000F7FF044B5B68C3F30223034AD35CD840EF
:101A800008BD00BF001002409853000808B5FFF7DA
:101A9000E7FF044B5B68C3F3C223034AD35CD8401F
:101AA00008BD00BF001002409853000870B582B016
:101AB0000024A446A6E0804DAA4210D007D97F4D4D
:101AC000AA420CD005F58035AA4208D013E0A5F54E
:101AD0008015AA4203D005F57025AA4207D18A686D
:101AE000002A58D0012A51D04361082403E0A5F50B
:101AF0008015AA42F3D0BEF1FF0F4ED80646BEF1C4
:101B0000FF0F4CD84FEA8C0233680F25954023EA2B
:101B1000050304FA02F2134333604B6813F0805F4D
:101B20006ED0674B9A6942F001029A619B6903F09B
:101B300001030193019B4FEA9C02951C614B53F8F2
:101B400025600CF003039D000F23AB4026EA03063B
:101B50005D4B984229D003F58063984200F08E8057
:101B600003F58063984200F08B8003F58063984210
:101B700019D004231AE0CC68BDE7CC680434BAE776
:101B8000CC680834B7E7CC680C34B4E703610824A8
:101B9000B1E70024AFE70424ADE7061DAFE7ACF1E1
:101BA00008029200B0E7032300E00023AB40334378
:101BB0000232444D45F822304B6813F4803F61D027
:101BC000424A136843EA0E0313604B6813F4003F64
:101BD0005ED03E4A536843EA0E0353604B6813F4E9
:101BE000801F5BD0394A936843EA0E0393604B68C9
:101BF00013F4001F58D0354AD36843EA0E03D3606C
:101C00000CF1010C0A6832FA0CF353D0012303FAE9
:101C10000CF302EA030E33EA0202F1D14A68122AF7
:101C20003FF649AF122A3FF666AF01A555F822F0FC
:101C3000DF1A0008771B0008811B0008931B0008AF
:101C4000F71A0008F71A0008F71A0008F71A000830
:101C5000F71A0008F71A0008F71A0008F71A000820
:101C6000F71A0008F71A0008F71A0008F71A000810
:101C7000F71A00087B1B0008871B0008012395E763
:101C8000022393E7114A136823EA0E0313609CE7CB
:101C90000E4A536823EA0E0353609FE70B4A93688A
:101CA00023EA0E039360A2E7084AD36823EA0E03EF
:101CB000D360A5E702B070BD000022100000311013
:101CC00000100240000001400008014000040140F3
:101CD0000AB10161704709040161704790F8213031
:101CE000022B06D004238363002380F820300120D8
:101CF00070470268136823F00E03136002681368CC
:101D000023F001031360036CC16B012202FA03F399
:101D10004B6080F82120002380F82030184670475F
:101D200008B590F82130022B03D0042383630120EF
:101D300008BD0268136823F00E031360026813687D
:101D400023F0010313600368194A934214D014323C
:101D500093421FD0143293421ED0143293421ED0AD
:101D6000143293421ED01432934202D04FF080724C
:101D700003E04FF4801200E001220E4B5A60012371
:101D800080F82130002380F82030436B6BB19847F6
:101D90000020CDE71022F0E74FF48072EDE74FF41A
:101DA0008052EAE74FF48032E7E70020C0E700BF47
:101DB0000800024000000240074AD36823F4E063B1
:101DC0001B041B0C000200F4E060034343F0BF63FC
:101DD00043F40033D360704700ED00E000B5194BC9
:101DE000DB68C3F30223C3F1070CBCF1040F28BF67
:101DF0004FF0040C03F1040EBEF1060F18D9033B9B
:101E00004FF0FF3E0EFA0CFC21EA0C0199400EFA4D
:101E100003F322EA0303194300280BDB0901C9B2CB
:101E200000F1604000F5614080F800135DF804FBAC
:101E30000023E5E700F00F000901C9B2024B195475
:101E4000F4E700BF00ED00E014ED00E0002807DB40
:101E500000F01F02400901239340024A42F820305B
:101E6000704700BF00E100E00138B0F1807F0BD285
:101E70004FF0E0235861054AF02182F8231000203A
:101E8000986107221A6170470120704700ED00E059
:101E90000268D36823F49073D3600268536923F017
:101EA00001035361036B012B05D0202380F83E30E2
:101EB0000023036370470268D36823F01003D360E4
:101EC000F3E790F83D30DBB2212B01D002207047C0
:101ED0008368B3F5805F17D0036A5A1C02621A78D0
:101EE00003685A60C38C9BB2013B9BB2C3844BB95D
:101EF0000268D36823F08003D3600268D36843F09C
:101F00004003D360002070470369002BE4D1036ACB
:101F10001B880268C3F308035360036A0233036239
:101F2000E0E7000010B504460268136923F440534B
:101F3000C1680B43136183680269134342691A4302
:101F40000168CB6823F4B05323F00C031343CB6038
:101F50000268536923F4407381690B43536102683B
:101F6000134B9A4220D0FFF781FD024602EB82021A
:101F700002EB820263689B00B2FBF3F20D48A0FB08
:101F800002314909642303FB11231B013233A0FBF7
:101F900003235B0903F0F00202EB011203F00F03CD
:101FA000216813448B6010BDFFF770FD0246DDE72A
:101FB000003801401F85EB512DE9F84305460F46D7
:101FC00016469946DDF820802C68246837EA040319
:101FD0000CBF4FF0010C4FF0000CB4451FD1B8F10D
:101FE000FF3FF1D0B8F1000F05D0FFF713FAA0EBD7
:101FF00009004045E8D92A68D36823F4D073D36038
:102000002A68536923F001035361202385F83D308A
:1020100085F83E30002385F83C30032000E00020A6
:10202000BDE8F88358B310B5044690F83D300BB3C3
:10203000242384F83D302268D36823F40053D3600E
:102040002046FFF76FFF2268136923F49043136162
:102050002268536923F02A0353612268D36843F44A
:102060000053D36000202064202384F83D3084F89E
:102070003E3010BD80F83C30FEF7A6FED8E70120C8
:1020800070472DE9F04182B01E4690F83D30DBB23A
:10209000202B54D104460D469046002953D0002AE7
:1020A00053D090F83C30012B51D0012380F83C30C4
:1020B00000230364212380F83D30FFF7ABF9074686
:1020C000A4F82480A4F82680A368B3F5805F05D027
:1020D0004FF00008002384F83C3012E0236913B16C
:1020E0004FF00008F6E7A8460025F3E738F8023B72
:1020F0002268C3F308035360E28C92B2013A92B2B1
:10210000E284E38C9BB273B100963B4600228021AF
:102110002046FFF751FFE0B9002DE7D015F8012B5D
:1021200023685A60E8E700963B460022402120469B
:10213000FFF742FF78B9202384F83D3000E0022009
:1021400002B0BDE8F0810120FAE70120F8E70220A3
:10215000F6E70320F4E70320F2E7704708B50168CB
:10216000CA6822F04002CA60202280F83D20FFF7B2
:10217000F4FF002008BD704708B5406A0023C385FE
:10218000C384FFF7F8FF08BD704790F83E30DBB21C
:10219000222B60D18368B3F5805F46D0826AB3F5A5
:1021A000805F04D0002B4DD10369002B4AD1036816
:1021B0005B681370836A01338362C38D9BB2013BFA
:1021C0009BB2C385002B48D100B583B00268D368A9
:1021D00023F02003D3600268D36823F48073D360B4
:1021E0000268536923F001035361202380F83E30D5
:1021F000036B012B2CD1002303630268D36823F007
:102200001003D36003681A6812F0100F06D0002282
:1022100001921A6801925B680193019B818DFFF71F
:10222000B3FF002003B05DF804FB0269002AB5D1BA
:10223000826A03685B68C3F308031380836A02330E
:102240008362BAE703685B6803F07F031370B1E74A
:10225000FEF73EFCE5E702207047002070470000D3
:1022600030B583B0044602681368D068516913F032
:102270000F0505D113F0200F02D010F0200F19D157
:102280002DB111F0010119D110F4907F16D1216BFD
:10229000012975D013F0800F03D010F0800F40F0AB
:1022A000D78013F0400F03D010F0400F40F0D480DF
:1022B00003B030BD2046FFF768FFF9E713F0010FC8
:1022C00006D010F4807F03D0226C42F00102226419
:1022D00013F0040F04D019B1226C42F00202226400
:1022E00013F0020F04D019B1226C42F004022264F0
:1022F00013F0080F07D010F0200F00D119B1226C95
:1023000042F008022264226C002AD1D013F0200F80
:1023100002D010F0200F21D123685B6903F0400345
:10232000226C12F0080F00D123B32046FFF7B0FD56
:1023300023685A6912F0400F18D05A6922F04002FF
:102340005A61A36B73B1464A5A63A06BFFF7E8FC6E
:102350000028ADD0A06B436B9847A9E72046FFF754
:1023600014FFD9E72046FFF706FFA1E72046FFF755
:1023700002FF9DE72046FFF7FEFE0023236497E758
:1023800013F0100F86D010F0100F83D000230193AC
:102390001368019353680193019B536913F0400F35
:1023A00032D0A16B0B685B689BB2002B80D0A08DF4
:1023B00098427FF67DAFE3858B69202B08D1A18DF4
:1023C000E38D9BB2C91A89B22046FFF7DDFE6FE7A5
:1023D000D36823F48073D3602268536923F0010328
:1023E00053612268536923F040035361202384F82A
:1023F0003E30002323632268D36823F01003D360A8
:10240000A06BFFF76BFCDAE7A18DE38D9BB2C91AD5
:1024100089B2E38D9BB2002B3FF44AAF00293FF411
:1024200047AFD36823F49073D3602268536923F0D5
:1024300001035361202384F83E3000232363226884
:10244000D36823F01003D3602046FFF79DFE2FE7EB
:102450002046FFF736FD2BE72046FFF77FFE27E7F4
:1024600079210008034681628285C28500201864B4
:10247000222283F83E2083F83C001968CA6842F49F
:102480008072CA6019684A6942F001024A611A689A
:10249000D36843F02003D360704708B590F83E300E
:1024A000DBB2202B0DD171B17AB190F83C30012B09
:1024B0000DD0012380F83C3000230363FFF7D2FFE7
:1024C00000E0022008BD0120FCE70120FAE702201D
:1024D000F8E770470C480D490D4A002302E0D45834
:1024E000C4500433C4188C42F9D30A4A0A4C00235E
:1024F00001E013600432A242FBD3FFF7EAFF00F0D1
:1025000011F8FEF769FB704700000020E001002091
:10251000D4570008E0010020C8020020FEE7002197
:1025200000F036BE70B500260C4D0D4C641BA41097
:10253000A64209D102F002FF00260A4D0A4C641B94
:10254000A410A64205D170BD55F8043B984701364A
:10255000EEE755F8043B98470136F2E7CC57000800
:10256000CC570008CC570008D05700080346024457
:10257000934200D1704703F8011BF9E72DE9F041C0
:102580000F46904601F006FD04460D46B8F1000FD7
:1025900011D0C7F30A53C3F16B03002B0BDD0024EA
:1025A0001B0503F17F5505F5401522462B46FDF727
:1025B0009DFF04460D4620462946BDE8F0810000F7
:1025C0002DE9F04F9B4600239FB01A939E4B824605
:1025D0001F680E4638461592FDF7C4FD4FF00008FF
:1025E00004464FF000091996199B1A782B2A4CD0F3
:1025F0003AD80D2A33D8082A33D8002A3DD00023F0
:102600000A93199D2B78302B40F0AA806B7803F049
:10261000DF03582B66D10A9B504601931AAB0093F7
:102620008A4ACDF808B01BAB19A900F025FE10F0BE
:102630000706044605D0062E29D100230135199539
:102640000A93159B002B40F08A850A9BD3B1424622
:1026500009F10043104619461FB0BDE8F08F202A4B
:10266000CDD101331993BFE72D2AC8D101220A9297
:102670005A1C19925B78002BC3D1159B1996002B1D
:1026800040F06B8542464B46E4E70022EFE71A9A9A
:102690003AB135211CA801F081FD50461A9901F08C
:1026A00049F9013E042E06D8DFE806F00A031417A4
:1026B0000A00DDE91C892107C3D549F00049C0E7BC
:1026C0001B9ADDE91C8302F2334223F4801343EAB0
:1026D0000259F0E7DFF87891EDE76FF000494FF02D
:1026E000FF38E8E7199B5A1C19925B78302BF9D018
:1026F000002BA6D001230793199B0A2208930023DD
:102700009B46CDE9053319980578A5F13003D9B278
:10271000092927D92246394601F042FE002833D044
:1027200000202A465C4603460490652A01D0452ACB
:1027300014D11CB9079A02439FD00024199E721C21
:10274000199272782B2A79D02D2A00F083800027E5
:10275000A2F13001092940F28380199600259FE0FB
:102760000023C8E7BBF1080FD5BF0699059902FB06
:10277000013302FB013300F10100D4BF069305933E
:102780000BF1010B1990BEE7199B1A1919921A5DEA
:10279000BBF1000F36D05C460490A2F13003092B48
:1027A00012D90123C1E7199B01305A1C19925A789A
:1027B000302AF8D0A2F13103082B00F2D58404901E
:1027C00000200446199B0893303A00F1010313D00E
:1027D000049905191944049123460A21AB4213D1E7
:1027E0002318082B04F1010404441BDC0A23069976
:1027F00003FB012306930023199A1846511C1991D3
:102800005278CAE75846D3E7082B04DC069F4F43AB
:1028100006970133E2E75F1C102FDEBF059F4F4391
:102820000597F6E7102CDFBF0A23059903FB012368
:102830000593E0E70023049301237BE70027B21C04
:102840001992B27884E700BF78540008B0530008AA
:102850000000F07F0127F2E7199A511C1991527874
:10286000302AF9D0A2F1310108293FF677AF4FF0B5
:102870000A0EA2F1300C199A0992199A511C199159
:102880005278A2F13005092D35D9099D491B082937
:1028900044F61F6502DC6545A8BF654607B16D4279
:1028A000002C4CD1079901437FF4CBAE002B7FF471
:1028B000E4AE692A26D023DC492A23D04E2A7FF4AD
:1028C000DCAE9D4919A800F025FF00283FF4D5AEE5
:1028D000199B1B78282B2CD198491CAA19A800F009
:1028E0002DFF052825D11D9BDDF8708043F0FF49A1
:1028F00049F4E009A5E60EFB0C2CACF1300CBCE76A
:102900006E2ADCE78E4919A800F004FF00283FF486
:10291000B4AE199B8B49013B19A8199300F0FAFE3C
:1029200010B9199B013319934FF00008DFF8189282
:1029300087E6864801F01EFD8046894681E6049BB5
:10294000BBF1000F08BFA346EB1A102C06982646D1
:102950000793A8BF1026FDF74FFD092C8046894636
:1029600013DD7B4B03EBC60353E91223FDF7BEFDDA
:10297000804605988946FDF73FFD02460B464046D6
:102980004946FDF7FDFB804689460F2C36DC079B48
:10299000002B3FF456AE22DD162B09DC6C49424673
:1029A00001EBC3014B46D1E90001FDF79FFDC3E7F1
:1029B000079AC4F12503934220DB654DC4F10F044F
:1029C00005EBC4014246D1E900014B46FDF78EFDFF
:1029D000079B1C1B05EBC405D5E90023E5E7079B16
:1029E00016330BDB049B40465D1B594B494603EBFA
:1029F000C505D5E90023FDF7A3FE9DE7079BA61BB0
:102A00001E44002E74DD16F00F030AD050494246D2
:102A100001EBC301D1E900014B46FDF767FD80469C
:102A2000894636F00F0652D0B6F59A7F27DD4FF073
:102A3000000BCDF810B0CDF820B0CDF818B022239F
:102A40004FF00008DFF80091CAF80030089B002B17
:102A50003FF4F7AD50461A9900F06CFF50460699C6
:102A600000F068FF5046049900F064FF5046089952
:102A700000F060FF5946504600F05CFFE1E5354B41
:102A800040460593002349461F463611012E21DC9E
:102A90000BB1804689462F4BA9F1547903EBC70748
:102AA0004246D7E900014B46FDF720FD264B0A467A
:102AB0000B40294980468B42B9D8A1F580118B4241
:102AC00086BF4FF0FF38DFF8949002F1547900236D
:102AD00005937FE0F20705D5059BD3E90023FDF7B9
:102AE00005FD0123059A0137083276100592CDE7DE
:102AF000EDD0764216F00F020AD0154B404603EB9C
:102B0000C2034946D3E90023FDF71AFE80468946F1
:102B10003611DCD01F2E23DD4FF0000BCDF810B0A6
:102B2000CDF820B0CDF818B022234FF000084FF0B8
:102B30000009CAF8003089E7AD530008C453000803
:102B4000A4530008A75300080000F07F3756000880
:102B500028550008005500080000A07CFFFFEF7F0B
:102B600016F0100318BF6A23404605934946002318
:102B7000B04FF20704D5D7E90023FDF7B7FC0123D6
:102B8000761007F10807F4D10BB180468946059B02
:102B9000C3B1C9F30A52C2F16B03002B494611DDE0
:102BA0001F2B40F32781342BD8BF4FF0FF334FF05A
:102BB0000008CFBF4FF05C79C2F14B0203FA02F27A
:102BC00002EA01090022002340464946FDF7F6FECD
:102BD0000028A1D1069B5A460093504623460899E7
:102BE00000F010FF089000283FF421AF049B4FF045
:102BF000000B5D1B079BCDF810B0002BB4BF2B461C
:102C000000230E93079B23EAE3731493089B50461B
:102C1000596800F04FFE069000283FF410AF089B63
:102C20000C301A6903F10C010232920000F034FEFC
:102C30001CAB01931BAB009342464B465046CDE97B
:102C40000C8901F021FA1A9000283FF4F8AE012116
:102C5000504600F06FFF0346049000283FF4EFAEAB
:102C60001B9D1C9A002DABBF0E9B149BEE185C1B8A
:102C7000059BA8BF149CA5EB030515446E4B05F1FD
:102C8000FF35B8BF0E9E9D42C2F1360280F2C4806D
:102C90005B1B1F2B4FF00107A2EB030200F3B18077
:102CA000002507FA03F30F93B718059BBE4214449F
:102CB0001C443346A8BF3B46A342A8BF2346002B73
:102CC000C2BFFF1AE41AF61A0E9B002B17DD1A4634
:102CD0005046049900F0ECFF049000283FF4AFAE9A
:102CE00001461A9A504600F03BFF099000283FF435
:102CF000A6AE50461A9900F01DFE099B1A93002FAC
:102D000000F38E80079B002B08DD5046149A06992D
:102D100000F0CEFF069000283FF491AE002C08DDB5
:102D200022465046069901F01DF8069000283FF40F
:102D300086AE002E08DD32465046049901F012F8A6
:102D4000049000283FF47BAE5046069A1A9901F091
:102D500095F8834600283FF472AE0024C3680499B6
:102D6000C4600B9301F06EF8A0426BDA0B9B53EA40
:102D7000080340F09180C9F31303002B40F08C80CE
:102D800029F000431B0D1B05B3F1D66F40F2848080
:102D9000DBF814301BB9DBF81030012B7CDD594611
:102DA0000122504600F0DEFF0499834601F04AF804
:102DB000002871DD05994B46204A002900F08C80DF
:102DC00002EA0901B1F1D66F00F38680B1F15C7FB0
:102DD0007FF7AAAE40464946194B0022FDF786FB15
:102DE0000B46034308BF22238046894608BFCAF822
:102DF00000302FE64FF0FF3202FA03F303EA08082F
:102E0000E0E6C5F17F4505F57F0505F57B45E23533
:102E100007FA05F50F9747E7012300250F9343E7CE
:102E20003A4650461A9900F09DFF1A9000287FF408
:102E300069AF04E6D853000802FCFFFF0000F07FF2
:102E400000005039CDF8249065D10B9AC9F31303D3
:102E50005AB3994A93422BD1059B414603B34A4644
:102E6000964B1340B3F1D46F4FF0FF321BD81B0DBC
:102E7000C3F16B0302FA03F3994219D1904B099AFB
:102E80009A4202D101313FF4DAAD4FF000088B4B8A
:102E9000099A1A4002F58019059B002B9AD1D9E5B1
:102EA0004FF0FF33E8E71346E6E753EA080381D023
:102EB000E5B1099B1D42EFD00B9B40464946059A60
:102EC000C3B1FFF75BFB02460B46DDE90C01FDF7E2
:102ED00057F980468946DFE71340A3F580136FEA70
:102EE00013594FF0FF386FEA0959D5E70F9B13EAE2
:102EF000080FE0E7FFF742FB02460B46DDE90C0155
:102F0000FDF73CF90022002380468946FDF756FD77
:102F10000028C1D008E65846049901F011F90022B2
:102F20004FF0804306460F46FDF75CFD002870D049
:102F30000B9B002B42D00026624F624D099B23F071
:102F400000431B0D1B050F930F9A5F4B9A4240F0F5
:102F5000C380099B4046A3F15479494601F01AF811
:102F600002460B4630463946FDF7C0FA42464B460C
:102F7000FDF706F90B465149544A194091428046E3
:102F80005DD90D9A4E4B9A4203D10C9B01333FF40D
:102F900056AD4FF0FF38DFF8289150461A9900F0EF
:102FA000C9FC5046069900F0C5FC5046049900F053
:102FB000C1FC5946504600F0BDFC27E6B8F1000FB1
:102FC00019D1099BC3F31303E3B9002230463946F4
:102FD0003C4BFDF7FDFCC8B90022304639463C4B5E
:102FE000FDF784FA04460D4605F100431694179345
:102FF000DDE91667A2E7B8F1010F03D1099B002BA9
:103000003FF492AD00260024324F96E70B9C304DE2
:10301000EAE72F4B002230463946FDF767FA0B9B53
:1030200004460D4633B901F1004310901193DDE9D8
:10303000106783E702460B46CDE91023F7E703F15B
:103040005479059B002BA8D129F000430F9A1B0D42
:103050001B059A42A1D120462946FDF701FDFDF747
:1030600017FA02460B4620462946FDF787F80B9AC9
:10307000C9F3130343EA0803134304460D4666D01D
:1030800009A3D3E90023FDF7A3FC00287FF4E2ACF9
:1030900007A3D3E9002320462946FDF7B7FC002803
:1030A0003FF47BAFD6E400BF9535A094FFFFDF3F30
:1030B00035E5AF350000E03FFFFF0F000000F07F77
:1030C000FFFFEF7F0000F03F0000E07FFFFF9F7CED
:1030D0000000E03F0000F0BF059B13B30F9BB3F16E
:1030E000D46F1ED826A3D3E9002320462946FDF736
:1030F00079FC90B129462046FDF792FC012838BFA3
:103100000120FDF779F90B9B04460D46D3B901F177
:10311000004312901393DDE912670F9A07F1D6630B
:103120009F1ADDE90C0100F035FF02460B463046E0
:103130003946FDF7DBF9DDE90C23FDF721F8804680
:1031400089467EE702460B46CDE91223E3E70EA34C
:10315000D3E90023FDF73CFCA1E700230A93199B68
:10316000159A1360FFF771BA652A3FF463AB452ADD
:103170003FF460AB0123FFF795BB00BFAFF30080C6
:103180000000C0FFFFFFDF419535A094FFFFCF3F58
:103190000A4601460248034B0068FFF711BA00BF18
:1031A0000C0000207400002003692DE9F043B3EB0C
:1031B000611F00F114044FEA611246DD11F01F0196
:1031C00004EB830604EB82050CD1294600F11007BD
:1031D000B14235D39B1A9B00EA1E964238BF0023AA
:1031E000234415E0A14654F82270C1F12008CF40D5
:1031F00005F1040E7645F44616D89A1A9200043A60
:103200000135AE4238BF0022A318A75007B10433DE
:10321000A342A3EB040208BF00234FEAA20202610B
:1032200008BF4361BDE8F083DCF800C00CFA08FC7D
:103230004CEA070749F8047B5EF8047BCF40D9E7E6
:1032400051F804CB47F804CFC2E72346E0E7A0F1EA
:103250003003092B02D82038C0B27047A0F16103B7
:10326000052B01D84738F7E7A0F14103052B01D81A
:103270002738F1E7002070472DE9F04F8BB0059318
:10328000B24B02901B688B46184690460393FCF79E
:1032900069FF8246039BDBF80020034413F8013CDE
:1032A0000693931CC2F1FF2202F57F02FE32D11871
:1032B0001F4613F8010B01913028F8D0FFF7C7FF24
:1032C000044600283AD152463846039901F068F87E
:1032D0000546002866D117F80A0007EB0A06FFF733
:1032E000B6FF002860D0334618781F46302803F117
:1032F0000103F9D0FFF7ABFF0123B0FA80F43546A4
:10330000640901933A46164630780132FFF79FFF71
:103310000028F8D152463046039901F041F880B9AF
:103320004DB906EB0A052A46164630780132FFF7FA
:103330008EFF0028F8D1AD1BAD0004E00024254627
:10334000E0E7002DF7D1337803F0DF03502B39D1BC
:1033500073782B2B2AD02D2B2CD04FF00009711C09
:103360000878FFF774FF431EDBB2182B2AD8A0F1B0
:10337000100211F8010FFFF76AFF431EDBB2182B92
:103380001BD9B9F1000F00D052421544CBF8001000
:10339000D4B1019B002B14BF0027062738460BB081
:1033A000BDE8F08F3E4625460124CCE74FF00009EA
:1033B000B11CD5E74FF00109FAE70A2303FB02022B
:1033C000103AD6E73146E1E72146F31B013B072BD4
:1033D0000ADC029800F06EFA044640B90246DE218B
:1033E0005B4B5C4800F0FEFF01315B10EFE74FF0F4
:1033F000000B00F11409CAF10103CDF81090CDF8CB
:1034000004B00893B7423FD3049F019B47F8043BA5
:10341000A7EB0907BF102761184600F03DFB7F01AD
:10342000D8F800603F1AB74262DDBF1B394620461C
:1034300000F0D7FE8246A8B14FF0010A7B1E591159
:1034400059F8211003F01F020AFA02F20A4209D0C9
:10345000534505DD2046B91E00F0C3FE002844D1C7
:103460004FF0020A39462046FFF79EFE3D44D8F849
:103470000830AB424ADA2146029800F05BFA00239A
:10348000149AA327136089E7731E069A079316F808
:10349000013C934219D0BBF1200F07D1049B019A44
:1034A00043F8042B049300239B46019316F8010C68
:1034B000FFF7CDFE019B00F00F0000FA0BF0034375
:1034C00001930BF1040B079B0DE0089A731E134444
:1034D000BB42E0D3184652460399099300F060FFBF
:1034E000099B0028D7D11E468CE74FF0030AB9E7A5
:1034F00009DAF71B21463A46029800F033FC0446ED
:10350000ED1B00F114094FF0000AB0E7D8F80400F1
:10351000A84272DD451BAE4235DCD8F80C30022BD8
:1035200029D0032B2BD0012B1CD1AE421AD1012E56
:1035300012D1D8F80430059A622713600123236161
:10354000C9F80030149B1C6028E700BF78540008BD
:1035500000540008115400082046711E00F041FE7E
:103560000028E6D12146029800F0E4F90023149ADD
:103570005027136012E7159B002BF3D1D9E7159B59
:10358000002BD6D1EEE76F1EBAF1000F32D127B172
:103590003946204600F025FE824601217B1159F86C
:1035A000233007F01F0701FA07F71F424FF0020709
:1035B0002946204618BF4AF0020A761BFFF7F4FDA1
:1035C000D8F80450BAF1000F48D0D8F80C30022BCC
:1035D00015D0032B17D0012B09D11AF0020F06D0FA
:1035E000D9F800004AEA000A1AF0010F0ED147F09C
:1035F000100733E04FF0010ACFE70127E2E7159B00
:10360000C3F101031593159B002BF0D04FF0000C74
:10361000D4F810B004F114034FEA8B0A03EB8B01CA
:10362000184653F8042BB2F1FF3F1CD00132026060
:10363000022F04F114033DD1D8F80020013AB24220
:103640000AD10122711153F8213006F01F0602FA47
:1036500006F61E4218BF174647F02007149B1C6051
:10366000059B1D609AE6994243F804CCD8D8A3681C
:103670009B4517DB61680298013100F01BF9814618
:1036800018B902468421194BABE6226904F10C01FA
:10369000023292000C3000F0FFF82146029800F050
:1036A00049F94C4623695A1C2261012204EB830329
:1036B0005A61BDE722695A450BDD01212046FFF71B
:1036C00073FDD8F808300135AB42FFF6D4AE0127C0
:1036D000C2E716F01F06FAD0534453F8040C00F06A
:1036E000DBF9C6F12006B042E7DBF0E70054000842
:1036F000C2F10802920070B5C2F120064368046866
:1037000003FA06F52C43D340046040F8043F884296
:10371000F4D370BD30B50368013311F8014B14B90F
:103720000360012030BD13F8012BA2F14105192DD2
:1037300098BF2032A242F0D00020F3E72DE9F04FED
:1037400000250B6882465E1102EB860613F01F030C
:1037500018BF0436371FB9463C46AB4687B0904683
:103760000268019346F8045C02955178531C039358
:1037700041B3084605920491FFF769FD00284FD137
:103780000499059A202918D8029B9B4513DD4C45C6
:1037900006D2072D04DC2A4649462046FFF7A8FF3B
:1037A000444550D90023A4F1040944F8043C1D46C3
:1037B0004C46CDF808B0039AD7E7292956D10232F2
:1037C000CAF80020BBF1000F50D04C4506D2072D9F
:1037D00004DC2A4649462046FFF78AFF444534D98F
:1037E0002346A8F1040253F8041B9F4242F8041F29
:1037F000F9D23B1B23F0030304330134033EB442EC
:1038000088BF04230022434443F8042B9F42FBD289
:103810003B681BB9474527D101233B60052026E0C3
:103820000135082D0BF1010B06DD4445C3D90023FA
:10383000012544F8043C043C226800F00F0040EAF3
:1038400002122260B7E70825B5E7019B002BDFD005
:103850004FF0FF32C3F1200322FA03F356F8042C91
:103860001A4046F8042CD3E7043FD1E7042007B000
:10387000BDE8F08F82B001B901A942B14BB1137814
:103880000B601278101E18BF012002B0704710465E
:10389000FBE76FF00100F8E70A44914200F1FF33C3
:1038A00000D1704710B511F8014B914203F8014F58
:1038B000F9D110BD70B5466A04460D4676B91020A0
:1038C00000F0C0FD0246606220B96621174B18481F
:1038D00000F088FDC0E901660660C660666AF368AC
:1038E00083B1636ADB6853F82500B8B9012101FA96
:1038F00005F6721D2046920000F094FC60B1C0E90C
:1039000001560EE021220421204600F08BFC636A60
:10391000F060DB68002BE4D1002070BD026843F842
:1039200025200023C0E90333F7E700BF8C540008CB
:10393000A354000870B5466A05460C4676B91020B7
:1039400000F080FD0246686220B98A21084B0948D0
:1039500000F048FDC0E901660660C6603CB16B6AD4
:103960006268DB6853F82210216043F8224070BD82
:103970008C540008A35400082DE9F04107460C467A
:103980001E4600200D6901F1140CDCF800300130F6
:1039900099B202FB01611E0C0B0C02FB063389B2CB
:1039A00001EB034185424FEA13464CF8041BECDC63
:1039B0000EB3A368AB4219DC616838460131FFF7EA
:1039C00079FF804628B90246B5210C4B0C4800F01F
:1039D00009FD226904F10C01023292000C30FFF75C
:1039E0005BFF21463846FFF7A5FF444604EB8503FD
:1039F00001355E6125612046BDE8F0810054000874
:103A0000A35400082DE9F843154609221F46083340
:103A10000C4693FBF2F30646012200219A4209DB91
:103A20003046FFF747FF40B90246CE21184B1948F0
:103A300000F0D8FC52000131F0E7089B092D4361EA
:103A40004FF00103036116DD04F10909C8462C4457
:103A500018F8013B01460A223046303BFFF78CFF45
:103A6000A045F5D1A5F108044C442D1B6319BB42B8
:103A700004DBBDE8F88309250A34F6E714F8013BB6
:103A800001460A223046303BFFF776FFEEE700BFE3
:103A900000540008A3540008020C12040346CAB9DB
:103AA0000304102013F07F4F04BF1B02083013F0F3
:103AB000704F04BF1B01043013F0404F04BF9B0044
:103AC0000230002B05DB13F0804F00F1010008BF2E
:103AD000202070470020E5E70368024613F0070046
:103AE0000BD0D90721D4980749BF5B089B08012058
:103AF00013605CBF02201360704799B209B91020AF
:103B00001B0CD9B209B908301B0A190704BF1B09DD
:103B10000430990704BF9B080230D90703D45B081F
:103B200000F1010003D0136070470020704720208F
:103B30007047000010B50C460121FFF7BBFE02469E
:103B400028B94FF4A071044B044800F04BFC01234A
:103B50004461036110BD00BF00540008A354000875
:103B60002DE9F04F91460A69D9F810300C469A4277
:103B7000BEBF0B464C4699462769D9F810A0A368EA
:103B8000616807EB0A06B34285B0B8BF0131FFF7A1
:103B900091FE30B9024640F25D11434B434800F0BC
:103BA00021FC00F114052B46002205EB8608434555
:103BB00021D304F1140303EB870709F1140303EB8A
:103BC0008A0202923A1B153A22F00302043204F1EF
:103BD00015018F4238BF04220192029A03939A4240
:103BE0000CD8002E03DD58F8043D002B59D0066197
:103BF00005B0BDE8F08F43F8042BD8E7B3F800A078
:103C0000BAF1000F23D0A9464FF0000C04F1140EB6
:103C10005EF8042BD9F800101FFA82FB89B20AFB68
:103C20000B116144D9F800C0120C4FEA1C4C0AFB7E
:103C300002C202EB114289B241EA024177454FEAE2
:103C4000124C49F8041BE3D8019A45F802C0039AC4
:103C50000433B2F80290B9F1000F20D0AE464FF015
:103C6000000A296804F1140CBCF800B0BEF8022068
:103C700089B209FB0B22924441EA0A414EF8041B27
:103C80005CF8042BBEF80010120C09FB021167450A
:103C900001EB1A414FEA114AE6D8019AA9500435BE
:103CA0009BE7013E9DE700BF00540008A3540008B5
:103CB0002DE9F843154612F0030206460F4607D0D9
:103CC000254C013A002354F82220FFF755FE074601
:103CD000AD103DD0746A7CB9102000F0B3FB0246F1
:103CE000706228B94FF4D7711C4B1D4800F07AFB65
:103CF000C0E901440460C460D6F82480D8F80840C4
:103D00004CB940F271213046FFF714FF00230446FE
:103D1000C8F8080003604FF00009EB070AD53946E0
:103D200022463046FFF71CFF804639463046FFF7F3
:103D300001FE47466D100BD0206838B92246214657
:103D40003046FFF70DFF2060C0F800900446E4E71E
:103D50003846BDE8F88300BFF05500088C540008D1
:103D6000A35400082DE9F0470C4607469146236905
:103D7000496803EB6218A3684FEA621A08F101066A
:103D8000B3420BDB3846FFF795FD054648B90246BE
:103D900040F2D911294B2A4800F024FB01315B0085
:103DA000EEE7002300F1140100F11002184653451C
:103DB00037DB20692AEAEA7A04F1140319F01F09B3
:103DC00001EB8A0103EB80002FD08A464FF0000CF4
:103DD000C9F1200E1A6802FA09F242EA0C024AF806
:103DE000042B53F8042B984222FA0EFCF2D8031B42
:103DF000153B23F00303043304F11502904238BF4E
:103E0000042341F803C0BCF1000F01D008F1020601
:103E1000013E384621462E61FFF78CFD2846BDE85D
:103E2000F08742F8040F0133C1E7043953F8042B3B
:103E3000984241F8042FF9D8EAE700BF005400087F
:103E4000A354000803460A69006930B5801A0DD1F1
:103E50001433143103EB820401EB820154F8045D46
:103E600051F8042D954202D004D3012030BDA34265
:103E7000F4D3FBE74FF0FF30F8E700002DE9F84FEF
:103E80000D460746114628461446FFF7DBFF061E7F
:103E900011D131463846FFF70DFD024628B940F2F0
:103EA00032213A4B3A4800F09DFA0123C0E904362A
:103EB0001046BDE8F88FA4BF23462C4638466168FB
:103EC000A6BF1D4600260126FFF7F4FC024618B9DE
:103ED0004FF410712D4BE5E702F11408C2464FF084
:103EE000000C2769C6602E6904F1140005F114095D
:103EF00000EB870E09EB8606103454F804BF59F81E
:103F0000043B1FFA8BF18C4499B21B0CACEB010102
:103F1000C3EB1B4303EB214389B24FEA234C4E45CD
:103F200041EA03434AF8043BE7D8731B153B23F0EF
:103F3000030315350433AE4238BF04231844434409
:103F40001E46054675450ED30EF10301091A21F0F0
:103F500003010338864538BF0021194451F8043D58
:103F60008BB11761A4E755F8048B1FFA88F16144FF
:103F70000C1404EB184489B241EA04414FEA244C82
:103F800046F8041BDEE7013FE8E700BF00540008E5
:103F9000A3540008114B0B40A3F15073002B02DD1A
:103FA0000020194670475B42B3F1A07F4FF000003C
:103FB0004FF000014FEA235204DA4FF4002343FA92
:103FC00002F17047A2F114031E2BD6BF4FF000423E
:103FD000012322FA03F31846704700BF0000F07F68
:103FE0002DE9F843076900F1140909EB870757F831
:103FF000046CA7F104083046FFF74EFDC0F1200322
:104000000A280B601F4917DCC14528BF0022C0F1F8
:104010000B0C26FA0CF338BF57F8082C43EA0105BD
:1040200000F1150306FA03F322FA0CF243EA020444
:1040300020462946BDE8F883C1452EBF002257F827
:10404000082CA7F10808B0F10B0316D0C3F1200724
:1040500022FA07F1C84506FA03F646EA010694BFBC
:10406000002158F8041C46F07F5502FA03F0F9408D
:1040700045F4401540EA0104DAE7144646EA010532
:10408000D6E700BF0000F03F2DE9F3410121DDE953
:10409000087690461D46FFF70DFC044630B90246EF
:1040A00040F20A31244B254800F09CF9C5F3130374
:1040B000C5F30A552DBB0193B8F1000326D068461D
:1040C0000093FFF709FD0099F0B1019AC0F12003B8
:1040D00002FA03F30B43C24063610192019B002B80
:1040E00014BF02210121A3612161C5B1A5F23345AD
:1040F0000544C0F135003D603060204602B0BDE8A7
:10410000F08143F48013D6E76161E7E701A8FFF788
:10411000E3FC0121019B216163612030E5E704EBB1
:104120008103A0F2324038601869FFF7B5FCC0EB9C
:1041300041113160E1E700BF00540008A3540008BA
:104140002DE9F74F884669468146FFF749FF0F463C
:1041500004460D46404601A9FFF742FFD9F810304A
:10416000D8F810208B46A3EB020CDDE900329B1A35
:1041700003EB4C13002BD5BF0A462A46C3EB03338F
:1041800002EB0357D8BF02EB035B5B46024639469E
:104190002046FCF7D5FA03B0BDE8F08F013970B5C1
:1041A00049111469013102F1140300EB810103EBA1
:1041B0008404051FA3420CD3A31A113B23F003036D
:1041C0001132A24288BF002318440023884205D33D
:1041D00070BD53F8046B45F8046FEBE740F8043BFF
:1041E000F4E700F1140200694B11984210B511DB9D
:1041F0000ADD11F01F0107D052F8234024FA01F024
:1042000000FA01F18C420BD102EB8303934203D8F5
:10421000002010BD0346F7E753F8041D0029F5D030
:104220000120F6E770B5A1FB025434B9294600F02D
:104230002DF8064628B9304670BD0C2200260260D3
:10424000F9E72A462146FEF791F9F4E770B50E4EDC
:104250000C463168054611B900F092F830602146ED
:10426000284600F08DF8431C0AD0C41C24F0030437
:10427000A04207D0211A284600F082F8013001D16F
:104280004FF0FF34204670BDB80200202DE9F04108
:10429000CD1C25F0030508350C2D38BF0C25002D4D
:1042A000074601DBA94205D90C2300263B603046B6
:1042B000BDE8F0812E4E00F0CDF833681C4634BBCB
:1042C00029463846FFF7C2FF431C04464DD13468E7
:1042D0002646002E40D123683146384604EB0308B9
:1042E00000F04EF880453AD1216803356D1A25F06B
:1042F000030508350C2D38BF0C2538462946FFF735
:10430000A5FF01302BD023682B4423600EE02268E8
:10431000521B1ED40B2A16D96119A342256018BF5F
:104320005960636808BF316062514B60384604F1E0
:104330000B0600F095F826F00706231DF21AB6D0FA
:104340009B1BA350B3E76268A3420CBF32605A6064
:10435000ECE723466468B2E734467668B9E70C2395
:1043600038463B6000F07CF8A1E72560DEE700BF3F
:10437000B402002000200149704700BF0000F87F10
:1043800038B50023054D044608462B6000F0BEFFFB
:10439000431C02D12B6803B1236038BDBC0200204E
:1043A000034610B572B10139841813F8010B11F8E6
:1043B000012F904201D1A34201D1801A10BD0028E3
:1043C000F3D1FAE71046F9E70346084641B1FF2A60
:1043D00004D98A224FF0FF301A60704701200A701A
:1043E000704700001FB514461A46094B05461B6866
:1043F000D8684CB1074BCDE9013400912B460649F2
:1044000000F00EF800F028FC044B1C46F3E700BF58
:104410000C000020FC55000809560008375600081B
:104420000EB403B5014603AB054853F8042B0068EE
:10443000019300F08BF802B05DF804EB03B0704715
:104440000C000020024B01461868FFF71FBF00BF99
:104450000C000020014800F0BBBD00BFC0020020DE
:10446000014800F0B6BD00BFC002002038B50546C7
:10447000002940D051F8043C0C1F002BB8BFE418B1
:10448000FFF7E8FF1C4A136833B9636014602846DD
:10449000BDE83840FFF7E4BFA34208D920682118DF
:1044A0008B4201BF19685B6809182160EDE71A4665
:1044B0005B680BB1A342FAD911685018A0420BD126
:1044C00020680144501883421160E0D118685B688D
:1044D000014411605360DAE702D90C232B60D6E760
:1044E000206821188B4201BF19685B680918216098
:1044F00063605460CBE738BDB4020020936810B409
:10450000013B002B936007DA9469A34201DB0A297F
:1045100002D110BC00F0E0BA1368581C106019708A
:10452000084610BC7047F8B506460F461446D51825
:10453000AC4201D1002007E03A46304614F8011B96
:10454000FFF7DCFF431CF3D1F8BD00002DE9F04F6D
:104550000D461446984606469DB018B183690BB9BE
:1045600000F098FC894B9D421BD175686B6ED90792
:1045700005D4AB899A0502D4A86D00F029FDAB895A
:104580001B0701D52B69EBB92946304600F0F6FA36
:10459000C0B16B6EDC070ED54FF0FF301DB0BDE82B
:1045A000F08F7B4B9D4201D1B568DFE7794B9D428F
:1045B00008BFF568DAE7AB899805EDD4A86D00F07F
:1045C00008FDE9E70023099320238DF829303023E3
:1045D0004FF00109CDF80C80DFF8BC818DF82A304E
:1045E00023469A4613F8012B0AB1252AF9D1BAEBD2
:1045F000040B0BD05B46224629463046FFF793FF5B
:10460000013000F0AA80099A5A4409929AF80030C1
:10461000002B00F0A28000234FF0FF32CDE90523EC
:104620000AF1010A049307938DF853301A93544604
:10463000052214F8011B584800F032FD049AD8B93D
:10464000D10644BF20238DF85330130744BF2B23DA
:104650008DF853309AF800302A2B15D0544600209C
:104660004FF00A0C079A214611F8013B303B092B09
:104670004ED9B0B1079214E0A0EB080309FA03F396
:104680001343A2460493D2E7039B191D1B680391B1
:10469000002BBBBF5B4242F0020207930793B8BFF7
:1046A000049223782E2B0CD163782A2B35D1039BCF
:1046B00002341A1D1B680392002BB8BF4FF0FF3362
:1046C0000593DFF8D8A003225046217800F0E8FCDB
:1046D00040B14023A0EB0A0003FA00F0049B013430
:1046E0000343049314F8011B06222D488DF828106B
:1046F00000F0D6FC00283FD02A4B1BBB039B07339E
:1047000023F0070308330393099B3B44099367E7AE
:104710000C4601200CFB0232A5E700234FF00A0CE7
:10472000194601340593204610F8012B303A092A26
:1047300003D9002BC5D00591C3E7044601230CFB28
:104740000121F0E703AB00932A463046164B04A93B
:10475000AFF300800746781CD6D16B6ED90705D41D
:10476000AB899A0502D4A86D00F033FCAB895B06D7
:104770003FF512AF099811E703AB00932A46304684
:10478000094B04A900F082F8E4E700BF8C57000849
:10479000AC5700086C570008395700083F5700080D
:1047A0004357000800000000274500082DE9F047A6
:1047B000164699468A680B6907469342B8BF134666
:1047C000336091F843200C46DDF820800AB10133B4
:1047D00033602368990642BF33680233336025682B
:1047E00015F0060506D104F1190AE36832689B1A30
:1047F000AB4228DC94F84320131E226818BF012323
:1048000092062DD44946384604F14302C047013090
:1048100020D02368E56803F00603042B18BF0025A9
:1048200032684FF00006A36808BFAD1A226908BFBE
:1048300025EAE5759342C4BF9B1AED181A34B542B8
:104840001AD1002008E00123524649463846C047A5
:10485000013003D14FF0FF30BDE8F0870135C4E7E8
:104860003020E11881F843005A1C94F84510224486
:10487000023382F84310C5E70123224649463846F1
:10488000C0470130E6D00136D9E700002DE9FF47E7
:104890000F7E9146782F80460C469A460C9D01F17A
:1048A000430207D8622F0AD8002F00F0D980582F72
:1048B00000F0A48004F1420584F842703AE0A7F1C8
:1048C0006303152BF6D801A151F823F02549000800
:1048D00039490008B5480008B5480008B54800083F
:1048E000B548000839490008B5480008B54800082F
:1048F000B5480008B5480008474A0008694900085B
:10490000294A0008B5480008B5480008694A000867
:10491000B548000869490008B5480008B5480008CE
:10492000314A00082B681A1D1B682A6004F14205F1
:1049300084F842300123A4E020682968060601F1CA
:1049400004030AD50E682B60002E03DA2D2376426D
:1049500084F843300A235E4819E00E6810F0400FD7
:104960002B6018BF36B2EFE72B682068191D29604D
:10497000010601D51E6802E04606FBD51E886F2F92
:104980000CBF08230A235248002184F843106568AD
:10499000002DA8BF2168A560A4BF21F004012160FB
:1049A0000EB9002D4DD01546B6FBF3F103FB116790
:1049B000C75D05F8017D3746BB420E46F4D9082B8A
:1049C0000BD12368DE0708D5236961689942DEBFF1
:1049D000302305F8013C05F1FF35521B22614B469F
:1049E00021464046CDF800A003AAFFF7DFFE0130C4
:1049F0004CD14FF0FF3004B0BDE8F087344881F867
:104A000045702968236851F8046B29601D0614D588
:104A1000DF0744BF43F0200323601EB9236823F05F
:104A2000200323601023AFE7236843F020032360B3
:104A30007823284884F84530E3E7590648BFB6B2E2
:104A4000E6E71546BBE72B682668181D61692860F4
:104A500035061B6801D5196002E07006FBD5198088
:104A6000002315462361BAE72B6800211A1D2A602E
:104A70001D686268284600F013FB08B1401B6060A7
:104A800063682361002384F84330A8E72A46494637
:104A900040462369D0470130ABD023689B0713D42D
:104AA000E068039B9842B8BF1846A4E7012332464A
:104AB00049464046D04701309BD00135E368039911
:104AC0005B1AAB42F2DCEBE7002504F11906F5E7CF
:104AD0004A5700085B570008F8B50E4614460546CD
:104AE00018B183690BB900F0D5F9214B9C422BD149
:104AF0006C68A369A360A3891A072FD523696BB3D8
:104B000023692068F6B2C01A63693746834204DC21
:104B10002146284600F02AF930BBA3680130013B4A
:104B2000A36023685A1C22601E706369834204D00C
:104B3000A389DB0706D50A2E04D12146284600F0BA
:104B400015F988B93846F8BD0A4B9C4201D1AC68CA
:104B5000CFE7094B9C4208BFEC68CAE721462846CC
:104B600000F00CF80028CBD04FF0FF37EAE700BF89
:104B70008C570008AC5700086C570008324B70B5D2
:104B80001D6806460C4625B1AB6913B9284600F0EE
:104B900081F92E4B9C420FD16C68A389B4F90C208B
:104BA00019072CD4DD0611D40923336042F04003E9
:104BB0004FF0FF30A3813EE0254B9C4201D1AC6811
:104BC000EBE7244B9C4208BFEC68E6E7580712D598
:104BD000616B41B104F14403994202D03046FFF7C2
:104BE00045FC00236363A38923F02403A3810023EE
:104BF000636023692360A38943F00803A3812369C9
:104C00004BB9A38903F42073B3F5007F03D0214689
:104C1000304600F005FAA089B4F90C2010F0010329
:104C20000AD00023A36063695B42A361236943B98F
:104C300010F08000BAD170BD810758BF6369A360CE
:104C4000F4E70020F7E700BF0C0000208C570008B5
:104C5000AC5700086C570008062008B500F056FA5B
:104C6000012000F069FB00008A89F8B505461007AD
:104C70000C4657D44B68002B04DC0B6C002B01DC7A
:104C80000020F8BDE66A002EFAD0002312F480520C
:104C90002F682B6032D0606DA3895A0705D56368F1
:104CA000C01A636B0BB1236CC01A00230246E66A7C
:104CB0002846216AB047431CA38906D129681D29CB
:104CC0002CD8294ACA40D60728D50022626022691A
:104CD000D904226004D5421C01D12B6803B9606558
:104CE000616B2F600029CBD004F14403994202D0BC
:104CF0002846FFF7BBFB00206063C2E7216A01235F
:104D00002846B047411CC7D12B68002BC4D01D2BAF
:104D100001D0162B01D12F60B2E7A38943F04003E5
:104D2000A381AEE70F69002FAAD0930718BF002315
:104D30000E6808BF4B69F61B0F608B60002E9FDD6D
:104D400033463A462846216AD4F828C0E04700286E
:104D500006DCA3894FF0FF3043F04003A38190E7C6
:104D60000744361AEAE700BF0100402038B50B6956
:104D700005460C4613B90025284638BD18B183698D
:104D80000BB900F087F8144B9C421BD16C68B4F946
:104D90000C30002BEFD0626ED00704D4990502D4FA
:104DA000A06D00F015F928462146FFF75DFF636E00
:104DB0000546DA07E0D4A3899B05DDD4A06D00F099
:104DC00008F9D9E7054B9C4201D1AC68DFE7044BF9
:104DD0009C4208BFEC68DAE78C570008AC57000823
:104DE0006C570008002310B50446C0E90033C0E941
:104DF0000433836081814366C2818361194608223E
:104E00005C30FDF7B3FB054B24626362044BA36285
:104E1000044BE362044B236310BD00BF45510008FF
:104E2000675100089F510008C3510008014900F074
:104E3000AFB800BF6D4D0008682270B54D1E5543D8
:104E40000E4605F17401FFF721FA044640B1002136
:104E5000C0E900160C30A06005F16802FDF786FB82
:104E6000204670BD014800F0B3B800BFC102002069
:104E7000014800F0AEB800BFC1020020014800F0B8
:104E8000A7B800BFC2020020014800F0A2B800BFCE
:104E9000C202002010B50446FFF7F0FFA3691BB162
:104EA000BDE81040FFF7F0BFC4E912332365134B90
:104EB000134A1B68A262A34208BF0123204608BF11
:104EC000A36100F01FF86060204600F01BF8A060AE
:104ED000204600F017F800220421E0606068FFF728
:104EE00081FF01220921A068FFF77CFF0222122125
:104EF000E068FFF777FF0123A361D1E7A053000823
:104F00002D4E0008F8B50746FFF7ACFF1E4B1E6894
:104F1000B36913B93046FFF7BDFF4836D6E901340F
:104F2000013B03D533680BB33668F7E7B4F90C508F
:104F3000D5B9164B04F15800E360656600F047F8F8
:104F4000FFF796FF08222946C4E90155C4E9045534
:104F50002560A56104F15C00FDF708FBC4E90D556F
:104F6000C4E912552046F8BD6834D9E70421384613
:104F7000FFF762FF044630600028D5D1FFF778FFC5
:104F80000C233B60EEE700BFA05300080100FFFFC9
:104F90002DE9F84306468846002700F14804D4E985
:104FA0000195B9F1010905D52468002CF7D13846DF
:104FB000BDE8F883AB89012B07D9B5F90E30013371
:104FC00003D029463046C04707436835E9E77047B4
:104FD0007047704770B50E46B1F90E10144600299F
:104FE0001D4696B008DA0022B6F90C302A601A067F
:104FF00010D44FF480630EE06A4600F009F90028EF
:10500000F1DB019A02F47042A2F500535A425A4170
:105010002A60EEE740230020236016B070BD000038
:105020008B8973B59D0706460C4607D504F14703E7
:10503000236023610123636102B070BD6A4601AB46
:10504000FFF7C8FF009905463046FFF71FF948B93A
:10505000B4F90C309A05EFD423F0030343F00203B4
:10506000A381E3E70D4BB362A389206043F0800383
:10507000A381009B20616361019B5BB13046B4F961
:105080000E1000F0D7F828B1A38923F0030343F0F2
:105090000103A381A0890543A581CDE72D4E00081A
:1050A000034610B5C9B202449342184601D100200C
:1050B00003E0047801338C42F6D110BD1F2938B5C6
:1050C00004460D4604D9162303604FF0FF3038BD67
:1050D000426C12B152F821304BB9204600F030F842
:1050E0002A4601462046BDE8384000F017B8012B9B
:1050F0000AD0591C03D1162303600120E7E70024DE
:10510000284642F8254098470020E0E7024B014638
:105110001868FFF7D3BF00BF0C00002038B500238C
:10512000064D0446084611462B6000F0D7F8431C94
:1051300002D12B6803B1236038BD00BFBC02002040
:1051400000F0BCB810B50C46B1F90E1000F094F8A0
:105150000028ABBF636DA3891B1823F48053ACBF39
:105160006365A38110BD2DE9F0411F468B8905467B
:10517000DB050C46164605D502230022B1F90E10B8
:1051800000F068F8A389324623F48053A3812846AF
:105190003B46B4F90E10BDE8F04100F017B810B569
:1051A0000C46B1F90E1000F055F8431CA38915BF49
:1051B000606523F4805343F48053A38118BFA38117
:1051C00010BDB1F90E1000F013B8000038B5044658
:1051D000084611460022054D2A601A4600F0A4F840
:1051E000431C02D12B6803B1236038BDBC020020F0
:1051F00038B50023054D044608462B6000F04EF8F4
:10520000431C02D12B6803B1236038BDBC020020CF
:1052100038B50023064D0446084611462B6000F0C1
:1052200045F8431C02D12B6803B1236038BD00BF91
:10523000BC02002038B50023054D044608462B600B
:1052400000F044F8431C02D12B6803B1236038BD41
:10525000BC02002038B50446084611460022054D20
:105260002A601A4600F042F8431C02D12B6803B1B1
:10527000236038BDBC02002038B5044608461146FC
:105280000022054D2A601A4600F038F8431C02D16E
:105290002B6803B1236038BDBC0200205822024BAA
:1052A0004FF0FF301A607047BC0200205822024BBA
:1052B0004FF0FF301A607047BC0200205822024BAA
:1052C0004FF0FF301A607047BC0200205822024B9A
:1052D00000201A60704700BFBC0200205822024B19
:1052E0004FF0FF301A607047BC0200205822024B7A
:1052F0004FF0FF301A607047BC0200205822024B6A
:105300004FF0FF301A607047BC020020044A054984
:105310001368002B08BF0B461844106018467047EE
:10532000C4020020C80200205822024B4FF0FF3078
:105330001A607047BC020020FEE700BFF8B500BF4E
:10534000F8BC08BC9E467047F8B500BFF8BC08BC66
:045350009E467047BE
:10535800000000006F6B0A006572726F720A00002D
:10536800616F3000616F3100616F32000203040524
:10537800060708090A0B0C0D0E0F1010000000009C
:1053880000000000000000000102030406070809ED
:105398000000000001020304100000206E6600698E
:1053A8006E69747900616E0035000000CEFBFFFF66
:1053B800CB030000010000000000000034000000E2
:1053C800CEFBFFFFCB03000001000000000000003F
:1053D800BC89D897B2D29C3C33A7A8D523F64939C3
:1053E8003DA7F444FD0FA5329D978CCF08BA5B25E5
:1053F800436FAC642806681142616C6C6F6320735C
:105408007563636565646564002F746D702F6A65E4
:105418006E6B696E732D4743432D31302D70697063
:10542800656C696E652D3333385F32303231313017
:1054380031385F313633343531363139352F73727F
:10544800632F6E65776C69622F6E65776C69622F62
:105458006C6962632F7374646C69622F6764746F1C
:10546800612D6765746865782E63002E0000000062
:105478007354000837560008700000204300504F4E
:10548800534958005245454E54206D616C6C6F630A
:1054980020737563636565646564002F746D702F90
:1054A8006A656E6B696E732D4743432D31302D70DD
:1054B8006970656C696E652D3333385F323032310F
:1054C800313031385F313633343531363139352F73
:1054D8007372632F6E65776C69622F6E65776C697E
:1054E800622F6C6962632F7374646C69622F6D70CC
:1054F8007265632E630000000080E03779C3414382
:10550800176E05B5B5B89346F5F93FE9034F384D21
:10551800321D30F94877825A3CBF737FDD4F1575CD
:10552800000000000000F03F0000000000002440E0
:1055380000000000000059400000000000408F40BB
:10554800000000000088C34000000000006AF84026
:105558000000000080842E4100000000D01263414A
:105568000000000084D797410000000065CDCD41C0
:10557800000000205FA00242000000E876483742A1
:10558800000000A2941A6D42000040E59C30A2423F
:105598000000901EC4BCD64200003426F56B0C43B4
:1055A8000080E03779C3414300A0D885573476435B
:1055B80000C84E676DC1AB43003D9160E458E143BC
:1055C800408CB5781DAF154450EFE2D6E41A4B4431
:1055D80092D54D06CFF08044F64AE1C7022DB54476
:1055E800B49DD9794378EA44050000001900000009
:1055F8007D0000002C2066756E6374696F6E3A201A
:1056080000617373657274696F6E2022257322209E
:105618006661696C65643A2066696C652022257349
:10562800222C206C696E65202564257325730A0079
:10563800002020202020202020202828282828205A
:105648002020202020202020202020202020202052
:1056580020881010101010101010101010101010BA
:1056680010040404040404040404041010101010AA
:105678001010414141414141010101010101010174
:1056880001010101010101010101010110101010C6
:105698001010424242424242020202020202020246
:1056A800020202020202020202020202101010109A
:1056B80020000000000000000000000000000000C2
:1056C80000000000000000000000000000000000D2
:1056D80000000000000000000000000000000000C2
:1056E80000000000000000000000000000000000B2
:1056F80000000000000000000000000000000000A2
:105708000000000000000000000000000000000091
:105718000000000000000000000000000000000081
:105728000000000000000000000000000000000071
:1057380000232D302B2000686C4C006566674546B9
:1057480047003031323334353637383941424344F3
:105758004546003031323334353637383961626383
:105768006465660000000000000000000000000002
:105778000000000000000000000000000000000021
:105788000000000000000000000000000000000011
:105798000000000000000000000000000000000001
:1057A80000000000000000000000000000000000F1
:1057B80000000000000000000000000000000000E1
:0457C80000000000DD
:0457CC00350100089B
:0457D00011010008BB
:1057D40001000000100000000024F400100000206C
:1057E400000000008C570008AC5700086C570008F4
:1057F40000000000000000000000000000000000A5
:105804000000000000000000000000000000000094
:105814000000000000000000000000000000000084
:105824000000000000000000000000000000000074
:105834000000000000000000000000000000000064
:10584400FF00000043000000000000000000000012
:105854000000000000000000000000000000000044
:1058640000000000430000000000000000000000F1
:105874000000000000000000000000000000000024
:1058840000000000430000000000000000000000D1
:105894000000000000000000000000000000000004
:1058A40000000000430000000000000000000000B1
:1058B40000000000000000000000000000000000E4
:1058C4000000000043000000000000000000000091
:1058D40000000000000000000000000000000000C4
:1058E4000000000043000000000000000000000071
:1058F40000000000000000000000000000000000A4
:105904000000000043000000000000000000000050
:105914000000000000000000000000000000000083
:1059240000000000C94300087538000800000000AA
:1059340038560008735400083756000837560008D4
:1059440037560008375600083756000837560008FF
:10595400375600083756000837560008FFFFFFFF88
:10596400FFFFFFFFFFFFFFFFFFFF000001004153A8
:10597400434949000000000000000000000000004E
:10598400000000000000000000000000000041537F
:10599400434949000000000000000000000000002E
:1059A40000000000000000000000000000000000F3
:04000005080024D5F6
:00000001FF
